{
  "contractName": "ProofOfExistence2",
  "abi": [
    {
      "constant": false,
      "inputs": [
        {
          "internalType": "bytes32",
          "name": "proof",
          "type": "bytes32"
        }
      ],
      "name": "storeProof",
      "outputs": [],
      "payable": false,
      "stateMutability": "nonpayable",
      "type": "function"
    },
    {
      "constant": false,
      "inputs": [
        {
          "internalType": "string",
          "name": "document",
          "type": "string"
        }
      ],
      "name": "notarize",
      "outputs": [],
      "payable": false,
      "stateMutability": "nonpayable",
      "type": "function"
    },
    {
      "constant": true,
      "inputs": [
        {
          "internalType": "string",
          "name": "document",
          "type": "string"
        }
      ],
      "name": "proofFor",
      "outputs": [
        {
          "internalType": "bytes32",
          "name": "",
          "type": "bytes32"
        }
      ],
      "payable": false,
      "stateMutability": "pure",
      "type": "function"
    },
    {
      "constant": true,
      "inputs": [
        {
          "internalType": "string",
          "name": "document",
          "type": "string"
        }
      ],
      "name": "checkDocument",
      "outputs": [
        {
          "internalType": "bool",
          "name": "",
          "type": "bool"
        }
      ],
      "payable": false,
      "stateMutability": "view",
      "type": "function"
    }
  ],
  "bytecode": "0x608060405234801561001057600080fd5b506103b5806100206000396000f3fe608060405234801561001057600080fd5b506004361061004c5760003560e01c806353fb9233146100515780637183616c146101245780638952877b1461019d578063f6c1acdf146101cb575b600080fd5b61010a6004803603602081101561006757600080fd5b810190808035906020019064010000000081111561008457600080fd5b82018360208201111561009657600080fd5b803590602001918460018302840111640100000000831117156100b857600080fd5b91908080601f016020809104026020016040519081016040528093929190818152602001838380828437600081840152601f19601f82011690508083019250505050505050919291929050505061029a565b604051808215151515815260200191505060405180910390f35b61019b6004803603602081101561013a57600080fd5b810190808035906020019064010000000081111561015757600080fd5b82018360208201111561016957600080fd5b8035906020019184600183028401116401000000008311171561018b57600080fd5b90919293919293905050506102b9565b005b6101c9600480360360208110156101b357600080fd5b8101908080359060200190929190505050610318565b005b610284600480360360208110156101e157600080fd5b81019080803590602001906401000000008111156101fe57600080fd5b82018360208201111561021057600080fd5b8035906020019184600183028401116401000000008311171561023257600080fd5b91908080601f016020809104026020016040519081016040528093929190818152602001838380828437600081840152601f19601f820116905080830192505050505050509192919290505050610346565b6040518082815260200191505060405180910390f35b6000806102a683610346565b90506102b181610357565b915050919050565b600061030883838080601f016020809104026020016040519081016040528093929190818152602001838380828437600081840152601f19601f82011690508083019250505050505050610346565b905061031381610318565b505050565b600160008083815260200190815260200160002060006101000a81548160ff02191690831515021790555050565b600081805190602001209050919050565b600080600083815260200190815260200160002060009054906101000a900460ff16905091905056fea265627a7a72315820223402b803520e60c2859047d9e00cac690200a2ec5a1ca633857ccd9bf98c1864736f6c63430005100032",
  "source": "// SPDX-License-Identifier: MIT\npragma solidity >=0.4.22 <0.9.0;\n\ncontract ProofOfExistence2 {\n    mapping (bytes32 => bool) private proofs;\n\n    function storeProof(bytes32 proof) public {\n        proofs[proof] = true;\n    }\n\n    function notarize(string calldata document) external {\n        bytes32 proof = proofFor(document);\n        storeProof(proof);\n    }\n\n    function proofFor(string memory document) pure public returns (bytes32) {\n        return keccak256(bytes(document));\n    }\n\n    function checkDocument(string memory document) public view returns (bool) {\n        bytes32 proof = proofFor(document);\n        return hasProof(proof);\n    }\n\n    function hasProof(bytes32 proof) internal view returns (bool) {\n        return proofs[proof];\n    }\n}\n",
  "sourcePath": "/Users/efecarranza/projects/poe/contracts/ProofOfExistence2.sol",
  "compiler": {
    "name": "solc",
    "version": "0.5.16+commit.9c3226ce.Emscripten.clang"
  },
  "schemaVersion": "3.4.3",
  "updatedAt": "2021-10-07T10:25:07.305Z",
  "networkType": "ethereum",
  "devdoc": {
    "methods": {}
  },
  "userdoc": {
    "methods": {}
  }
}